:100000000C9434000C9451000C9451000C94510049
:100010000C9451000C9451000C9451000C9451001C
:100020000C9451000C9451000C9451000C9401015B
:100030000C9451000C9451000C9451000C945100FC
:100040000C9451000C9451000C9451000C945100EC
:100050000C9451000C9451000C9451000C945100DC
:100060000C9451000C94510011241FBECFEFD8E026
:10007000DEBFCDBF11E0A0E0B1E0ECE0FBE002C0EC
:1000800005900D92A432B107D9F721E0A4E2B1E0C6
:1000900001C01D92AE32B207E1F70E944A020C94F1
:1000A00084050C940000209A8AB1886F8AB95A9A04
:1000B00008958091260190912701009709F44CC082
:1000C0008091040190910501892B09F43FC0809132
:1000D000040190910501019790930501809304011B
:1000E000109201011092000180910401909105018C
:1000F0008B33910551F52091000130910101232BA3
:1001000021F52091020130910301232B29F08091E8
:1001100002019091030101979093030180930201E2
:100120008091020190910301CB9779F48091240191
:1001300090912501892B69F08091240190912501EE
:100140000197909325018093240108958BE390E01B
:10015000C3CF88E190E0F5CF2091040130910501F3
:100160002B33310529F0809104019091050101960E
:1001700090930501809304011092010110920001F7
:100180008091040190910501892BF9F6809100017D
:10019000909101010097C9F620910201309103016D
:1001A0002B33310529F080910201909103010196D2
:1001B00090930301809302018091020190910301C9
:1001C000009719F62091240130912501283131053D
:1001D00009F4B7CF80912401909125010196B1CF08
:1001E000E1E8F0E080818D60808389E09DE3909379
:1001F000890080938800EFE6F0E080818260808350
:1002000008951F920F920FB60F9211242F933F93D0
:100210004F935F936F937F938F939F93AF93BF930E
:10022000EF93FF930E945900FF91EF91BF91AF911F
:100230009F918F917F916F915F914F913F912F91FE
:100240000F900FBE0F901F90189589B182FB8827E1
:1002500080F990E008950E9434010E94F0007894A3
:100260000E9453000C94F90186E091E090932B01D9
:1002700080932A01519A50981092C50080E1809392
:10028000C400E1ECF0E0808188608083808180613F
:10029000808386E08093C200E0ECF0E080818260A1
:1002A000808308959091C00095FFFCCF8093C60095
:1002B0000895CF93C82F8A3019F48DE00E9452011F
:1002C0008C2F0E94520180E090E0CF9108958091A0
:1002D000C00087FFFCCF8091C60008958091C000C8
:1002E00087FB882780F90895CF93DF93EC018991EC
:1002F000811103C0DF91CF9108950E945201F7CF81
:10030000CF92DF92EF92FF920F931F93CF938C01C6
:10031000E12CF12C615071096B010E946701C82F1B
:100320000E945201F801CA3051F41082C701CF91E6
:100330001F910F91FF90EF90DF90CF900895CD30F7
:10034000A1F3C1938F01FFEFEF1AFF0ACE14DF0470
:1003500021F7F801EACF5C9A8DE08A95F1F7000069
:100360005C980895CF93C82F87FF1FC0289AC6FFB7
:100370001EC05F9AC5FF1DC05E9AC4FF1CC05D9A77
:100380000E94AB018DE08A95F1F70000C3FF15C014
:10039000289AC2FF14C05F9AC1FF13C05E9AC0FFC3
:1003A00012C05D9ACF910C94AB012898E0CF5F9872
:1003B000E1CF5E98E2CF5D98E3CF2898EACF5F98CF
:1003C000EBCF5E98ECCF5D98EDCF5B9A0E94B201C7
:1003D00083EF91E00197F1F700C0000008955B986A
:1003E0000E94B20181EE94E00197F1F700C0000095
:1003F00008955C9887E893E10197F1F700C0000049
:1004000083E30E94EF0183E30E94EF0182E30E94F5
:10041000EF0188E20E94EF018CE00E94EF0181E091
:100420000E94EF0187E893E10197F1F700C0000017
:100430000895FF920F931F93CF93DF93D82FC92F67
:10044000F42E80EC623009F080E80E94EF0181EE2A
:1004500094E00197F1F700C000000D2F1C2FC0E0C1
:10046000D0E0F80181918F01811108C0F1100EC018
:10047000DF91CF911F910F91FF9008950E94E501A8
:100480002196EFCF80E20E94E5012196C031D1058F
:10049000CCF3EECFCDB7DEB761970FB6F894DEBFE1
:1004A0000FBECDBF0E942B010E94590084E1C82ECF
:1004B00081E0D82ECE0101967C010E942501019792
:1004C00069F4809126019091270101E010E0892BC9
:1004D00009F000E0109327010093260140910401E8
:1004E0005091050120910201309103018091240176
:1004F000909125015F934F933F932F939F938F93F9
:10050000DF92CF92FF92EF920E949A0241E061E067
:10051000C7010E9419029FEF29E688E1915020400F
:100520008040E1F700C000000FB6F894DEBF0FBEB8
:10053000CDBFC3CFAEE0B0E0E0EAF2E00C945B05E3
:100540000D891E8986E08C831A8309838FEF9FE7CC
:100550009E838D83AE01475E5F4F6F89788DCE019C
:1005600001960E94BD022F813885020F131FF801EA
:1005700010822E96E4E00C947705ABE0B0E0E3EC5B
:10058000F2E00C944E056C017B018A01FC0117829C
:100590001682838181FFDAC19AE0492EF601238118
:1005A000F70123FD859123FF81917F01811509F4D6
:1005B0001FC1853239F423FD959123FF91917F016D
:1005C000953229F4B60190E00E94BF04E7CF30E0F5
:1005D000612C512C712CF0E27F1640F59B32D9F042
:1005E00058F49032D1F09332F1F09E3299F576FCC6
:1005F000FFC0689476F806C09D3291F09033C1F444
:10060000689470F8F70123FD959123FF91917F0184
:100610009111E1CF29C0689471F8689472F8F2CF13
:10062000689473F8EFCF689474F8ECCF77FC1CC033
:1006300080ED890F8A30C8F676FE05C0649C800D77
:100640001124682EDFCF549C800D1124582E6894FD
:1006500075F8D8CF9C3619F4689477F8D3CF9C34CA
:1006600009F44BC0983671F2892F8F7D8554833001
:1006700008F445C0933609F466C0933709F469C09D
:10068000933509F475C0943619F0993609F09FC076
:10069000F80177FE95C061917191819191918F01DF
:1006A000272D2F76722E97FF09C090958095709513
:1006B00061957F4F8F4F9F4F689477F82AE030E025
:1006C000AE014F5F5F4F5A010E94EF048A19A82EB6
:1006D00076FEC5C0872D8E7FA61408F0BFC074FEBD
:1006E00012C172FC06C1F72DFE7E7F2EB62C872D1F
:1006F0008678811509F4C0C001C131E083CF31157E
:10070000F9F0085F1F4F8FE3898388248394912C2D
:10071000AE014F5F5F4F5A01E89477F873FC03C056
:1007200085149104B0F181149104D1F5511409F4A8
:1007300035CFB60180E290E00E94BF045A94F6CF14
:100740000C5F1F4FE0CFF801808189830E5F1F4F40
:10075000DCCFF801A190B1908F01662D70E076FC9E
:1007600002C06FEF7FEFC5010E94B4044C01D4CFEB
:10077000F801A190B1908F01662D70E076FC02C067
:100780006FEF7FEFC5010E94A9044C01689477F8D0
:10079000C5CFB60180E290E00E94BF045A94C0CF5A
:1007A000F50177FC859177FE81915F01B60190E0BC
:1007B0000E94BF0451105A94F1E08F1A9108B3CFF0
:1007C00061917191072E000C880B990B68CF372C23
:1007D000E89434F82AE030E0953739F1572D597F05
:1007E000352E903799F058F49835A9F09F36D9F006
:1007F000F601868197812B96E1E10C946A05983782
:10080000B9F774FC05C020E130E00FC0689434F8FB
:10081000689432F8F8CF74FE03C0872D8660382EB6
:1008200020E132E002C028E030E0F80137FE11C0DC
:1008300061917191819191918F01FE0131965F01DA
:10084000AF010E94EF048A19A82E732CE89477F860
:100850003FCF6191719180E090E0EECF782EBA2C7D
:1008600074FE45CFFE01EA0DF11D8081803309F051
:1008700043C0272D297E722E73FC0EC070FE4FC020
:100880006A2CB51418F4650C6B18B52C852D8B19D2
:100890005B1408F480E0B80EB51408F042C05B1891
:1008A00074FE41C0B60180E390E00E94BF0472FE76
:1008B00009C088E590E071FC02C088E790E0B601CD
:1008C0000E94BF04A614D8F1AA94B12C4FEFA41A29
:1008D000B40ACE0101963C01A80EB91EF501829121
:1008E0005F01B60190E00E94BF046A147B04B1F777
:1008F0001DCFB62C782EB6CF72FC02C0B394BCCFFD
:10090000B394B394B9CFB62C782EF1CEB60180E271
:1009100090E00E94BF0433943514C0F3B7CF3B2C52
:10092000FBCF512CBDCF872D8678811559F280E2FF
:1009300071FC8BE277FC8DE2B60190E0C1CFB6018D
:1009400080E390E00E94BF046A94BCCF8FEF9FEFDA
:1009500052CFFC010590615070400110D8F780958E
:1009600090958E0F9F1F0895FC016150704001907B
:100970000110D8F7809590958E0F9F1F08950F93C3
:100980001F93CF93DF93182F092FEB018B8181FDEC
:1009900009C01FEF0FEF812F902FDF91CF911F9193
:1009A0000F91089582FF14C02E813F818C819D811B
:1009B000281739073CF4E881F981CF010196998322
:1009C000888310838E819F8101969F838E83E3CFDE
:1009D000E885F985812F0995892BA1F3DACFFA01F2
:1009E000AA27283051F1203181F1E8946F936E7F6E
:1009F0006E5F7F4F8F4F9F4FAF4FB1E03ED0B4E05F
:100A00003CD0670F781F891F9A1FA11D680F791F9F
:100A10008A1F911DA11D6A0F711D811D911DA11DB0
:100A200020D009F468943F912AE0269F11243019C0
:100A3000305D3193DEF6CF010895462F4770405D5B
:100A40004193B3E00FD0C9F7F6CF462F4F70405D0A
:100A50004A3318F0495D31FD4052419302D0A9F765
:100A6000EACFB4E0A6959795879577956795BA955F
:100A7000C9F700976105710508959B01AC010A2E25
:100A800006945795479537952795BA95C9F7620FFC
:100A9000731F841F951FA01D08952F923F924F92A0
:100AA0005F926F927F928F929F92AF92BF92CF92FE
:100AB000DF92EF92FF920F931F93CF93DF93CDB707
:100AC000DEB7CA1BDB0B0FB6F894DEBF0FBECDBF7F
:100AD00009942A88398848885F846E847D848C8450
:100AE0009B84AA84B984C884DF80EE80FD800C8159
:100AF0001B81AA81B981CE0FD11D0FB6F894DEBF3C
:0C0B00000FBECDBFED010895F894FFCFAB
:100B0C000100010028000000000200000000590153
:100B1C0000000000253032643A253032643A25302A
:040B2C00326400002F
:00000001FF
